{
  "_format": "hh-sol-artifact-1",
  "contractName": "TransEth",
  "sourceName": "contracts/TransEth.sol",
  "abi": [
    {
      "inputs": [
        {
          "internalType": "address",
          "name": "_nftContract",
          "type": "address"
        }
      ],
      "stateMutability": "nonpayable",
      "type": "constructor"
    },
    {
      "anonymous": false,
      "inputs": [
        {
          "indexed": true,
          "internalType": "address",
          "name": "seller",
          "type": "address"
        },
        {
          "indexed": false,
          "internalType": "uint256",
          "name": "amount",
          "type": "uint256"
        }
      ],
      "name": "FundsWithdrawn",
      "type": "event"
    },
    {
      "anonymous": false,
      "inputs": [
        {
          "indexed": true,
          "internalType": "uint256",
          "name": "tokenId",
          "type": "uint256"
        },
        {
          "indexed": false,
          "internalType": "uint256",
          "name": "price",
          "type": "uint256"
        },
        {
          "indexed": true,
          "internalType": "address",
          "name": "seller",
          "type": "address"
        }
      ],
      "name": "NFTListed",
      "type": "event"
    },
    {
      "anonymous": false,
      "inputs": [
        {
          "indexed": true,
          "internalType": "uint256",
          "name": "tokenId",
          "type": "uint256"
        },
        {
          "indexed": false,
          "internalType": "uint256",
          "name": "price",
          "type": "uint256"
        },
        {
          "indexed": true,
          "internalType": "address",
          "name": "buyer",
          "type": "address"
        },
        {
          "indexed": true,
          "internalType": "address",
          "name": "seller",
          "type": "address"
        }
      ],
      "name": "NFTSold",
      "type": "event"
    },
    {
      "stateMutability": "payable",
      "type": "fallback"
    },
    {
      "inputs": [
        {
          "internalType": "uint256",
          "name": "_tokenId",
          "type": "uint256"
        }
      ],
      "name": "buyNFT",
      "outputs": [],
      "stateMutability": "payable",
      "type": "function"
    },
    {
      "inputs": [
        {
          "internalType": "uint256",
          "name": "_tokenId",
          "type": "uint256"
        },
        {
          "internalType": "uint256",
          "name": "_price",
          "type": "uint256"
        }
      ],
      "name": "listNFT",
      "outputs": [],
      "stateMutability": "nonpayable",
      "type": "function"
    },
    {
      "inputs": [
        {
          "internalType": "uint256",
          "name": "",
          "type": "uint256"
        }
      ],
      "name": "listings",
      "outputs": [
        {
          "internalType": "uint256",
          "name": "tokenId",
          "type": "uint256"
        },
        {
          "internalType": "uint256",
          "name": "price",
          "type": "uint256"
        },
        {
          "internalType": "address",
          "name": "seller",
          "type": "address"
        }
      ],
      "stateMutability": "view",
      "type": "function"
    },
    {
      "inputs": [],
      "name": "nftContract",
      "outputs": [
        {
          "internalType": "contract IERC721",
          "name": "",
          "type": "address"
        }
      ],
      "stateMutability": "view",
      "type": "function"
    },
    {
      "inputs": [
        {
          "internalType": "address",
          "name": "operator",
          "type": "address"
        },
        {
          "internalType": "address",
          "name": "from",
          "type": "address"
        },
        {
          "internalType": "uint256",
          "name": "tokenId",
          "type": "uint256"
        },
        {
          "internalType": "bytes",
          "name": "data",
          "type": "bytes"
        }
      ],
      "name": "onERC721Received",
      "outputs": [
        {
          "internalType": "bytes4",
          "name": "",
          "type": "bytes4"
        }
      ],
      "stateMutability": "pure",
      "type": "function"
    },
    {
      "inputs": [
        {
          "internalType": "address",
          "name": "",
          "type": "address"
        }
      ],
      "name": "sellerBalances",
      "outputs": [
        {
          "internalType": "uint256",
          "name": "",
          "type": "uint256"
        }
      ],
      "stateMutability": "view",
      "type": "function"
    },
    {
      "inputs": [],
      "name": "withdrawFunds",
      "outputs": [],
      "stateMutability": "nonpayable",
      "type": "function"
    },
    {
      "stateMutability": "payable",
      "type": "receive"
    }
  ],
  "bytecode": "0x60806040523480156200001157600080fd5b50604051620012d4380380620012d483398181016040528101906200003791906200015a565b600073ffffffffffffffffffffffffffffffffffffffff168173ffffffffffffffffffffffffffffffffffffffff1603620000a9576040517f08c379a0000000000000000000000000000000000000000000000000000000008152600401620000a090620001ed565b60405180910390fd5b806000806101000a81548173ffffffffffffffffffffffffffffffffffffffff021916908373ffffffffffffffffffffffffffffffffffffffff160217905550506200020f565b600080fd5b600073ffffffffffffffffffffffffffffffffffffffff82169050919050565b60006200012282620000f5565b9050919050565b620001348162000115565b81146200014057600080fd5b50565b600081519050620001548162000129565b92915050565b600060208284031215620001735762000172620000f0565b5b6000620001838482850162000143565b91505092915050565b600082825260208201905092915050565b7f496e76616c6964204e465420636f6e7472616374206164647265737300000000600082015250565b6000620001d5601c836200018c565b9150620001e2826200019d565b602082019050919050565b600060208201905081810360008301526200020881620001c6565b9050919050565b6110b5806200021f6000396000f3fe6080604052600436106100745760003560e01c8063607eb4e41161004e578063607eb4e4146100ed57806394383f141461012a578063d56d229d14610153578063de74e57b1461017e5761007b565b8063150b7a021461007d57806324600fc3146100ba57806351ed8288146100d15761007b565b3661007b57005b005b34801561008957600080fd5b506100a4600480360381019061009f9190610aa8565b6101bd565b6040516100b19190610b6b565b60405180910390f35b3480156100c657600080fd5b506100cf6101d2565b005b6100eb60048036038101906100e69190610b86565b610336565b005b3480156100f957600080fd5b50610114600480360381019061010f9190610bb3565b6105f8565b6040516101219190610bef565b60405180910390f35b34801561013657600080fd5b50610151600480360381019061014c9190610c0a565b610610565b005b34801561015f57600080fd5b50610168610937565b6040516101759190610ca9565b60405180910390f35b34801561018a57600080fd5b506101a560048036038101906101a09190610b86565b61095b565b6040516101b493929190610cd3565b60405180910390f35b600063150b7a0260e01b905095945050505050565b6000600260003373ffffffffffffffffffffffffffffffffffffffff1673ffffffffffffffffffffffffffffffffffffffff16815260200190815260200160002054905060008111610259576040517f08c379a000000000000000000000000000000000000000000000000000000000815260040161025090610d67565b60405180910390fd5b6000600260003373ffffffffffffffffffffffffffffffffffffffff1673ffffffffffffffffffffffffffffffffffffffff168152602001908152602001600020819055503373ffffffffffffffffffffffffffffffffffffffff166108fc829081150290604051600060405180830381858888f193505050501580156102e4573d6000803e3d6000fd5b503373ffffffffffffffffffffffffffffffffffffffff167feaff4b37086828766ad3268786972c0cd24259d4c87a80f9d3963a3c3d999b0d8260405161032b9190610bef565b60405180910390a250565b60006001600083815260200190815260200160002060405180606001604052908160008201548152602001600182015481526020016002820160009054906101000a900473ffffffffffffffffffffffffffffffffffffffff1673ffffffffffffffffffffffffffffffffffffffff1673ffffffffffffffffffffffffffffffffffffffff168152505090506000816020015111610409576040517f08c379a000000000000000000000000000000000000000000000000000000000815260040161040090610dd3565b60405180910390fd5b8060200151341015610450576040517f08c379a000000000000000000000000000000000000000000000000000000000815260040161044790610e3f565b60405180910390fd5b6001600083815260200190815260200160002060008082016000905560018201600090556002820160006101000a81549073ffffffffffffffffffffffffffffffffffffffff0219169055505060008054906101000a900473ffffffffffffffffffffffffffffffffffffffff1673ffffffffffffffffffffffffffffffffffffffff166342842e0e3033856040518463ffffffff1660e01b81526004016104fa93929190610e5f565b600060405180830381600087803b15801561051457600080fd5b505af1158015610528573d6000803e3d6000fd5b505050503460026000836040015173ffffffffffffffffffffffffffffffffffffffff1673ffffffffffffffffffffffffffffffffffffffff168152602001908152602001600020600082825461057f9190610ec5565b92505081905550806040015173ffffffffffffffffffffffffffffffffffffffff163373ffffffffffffffffffffffffffffffffffffffff16837f2820044bbebd591ee7d08b7d81dd01945a1a32706da693a946e532d6d988425884602001516040516105ec9190610bef565b60405180910390a45050565b60026020528060005260406000206000915090505481565b60008111610653576040517f08c379a000000000000000000000000000000000000000000000000000000000815260040161064a90610f45565b60405180910390fd5b3373ffffffffffffffffffffffffffffffffffffffff1660008054906101000a900473ffffffffffffffffffffffffffffffffffffffff1673ffffffffffffffffffffffffffffffffffffffff16636352211e846040518263ffffffff1660e01b81526004016106c39190610bef565b602060405180830381865afa1580156106e0573d6000803e3d6000fd5b505050506040513d601f19601f820116820180604052508101906107049190610f7a565b73ffffffffffffffffffffffffffffffffffffffff161461075a576040517f08c379a000000000000000000000000000000000000000000000000000000000815260040161075190610ff3565b60405180910390fd5b60006001600084815260200190815260200160002060010154146107b3576040517f08c379a00000000000000000000000000000000000000000000000000000000081526004016107aa9061105f565b60405180910390fd5b60008054906101000a900473ffffffffffffffffffffffffffffffffffffffff1673ffffffffffffffffffffffffffffffffffffffff166342842e0e3330856040518463ffffffff1660e01b815260040161081093929190610e5f565b600060405180830381600087803b15801561082a57600080fd5b505af115801561083e573d6000803e3d6000fd5b5050505060405180606001604052808381526020018281526020013373ffffffffffffffffffffffffffffffffffffffff1681525060016000848152602001908152602001600020600082015181600001556020820151816001015560408201518160020160006101000a81548173ffffffffffffffffffffffffffffffffffffffff021916908373ffffffffffffffffffffffffffffffffffffffff1602179055509050503373ffffffffffffffffffffffffffffffffffffffff16827fd2ab19646d6f9fdd37206f962b4ebaab8a4a23ad87f7695e7e1736803cb8bf748360405161092b9190610bef565b60405180910390a35050565b60008054906101000a900473ffffffffffffffffffffffffffffffffffffffff1681565b60016020528060005260406000206000915090508060000154908060010154908060020160009054906101000a900473ffffffffffffffffffffffffffffffffffffffff16905083565b600080fd5b600080fd5b600073ffffffffffffffffffffffffffffffffffffffff82169050919050565b60006109da826109af565b9050919050565b6109ea816109cf565b81146109f557600080fd5b50565b600081359050610a07816109e1565b92915050565b6000819050919050565b610a2081610a0d565b8114610a2b57600080fd5b50565b600081359050610a3d81610a17565b92915050565b600080fd5b600080fd5b600080fd5b60008083601f840112610a6857610a67610a43565b5b8235905067ffffffffffffffff811115610a8557610a84610a48565b5b602083019150836001820283011115610aa157610aa0610a4d565b5b9250929050565b600080600080600060808688031215610ac457610ac36109a5565b5b6000610ad2888289016109f8565b9550506020610ae3888289016109f8565b9450506040610af488828901610a2e565b935050606086013567ffffffffffffffff811115610b1557610b146109aa565b5b610b2188828901610a52565b92509250509295509295909350565b60007fffffffff0000000000000000000000000000000000000000000000000000000082169050919050565b610b6581610b30565b82525050565b6000602082019050610b806000830184610b5c565b92915050565b600060208284031215610b9c57610b9b6109a5565b5b6000610baa84828501610a2e565b91505092915050565b600060208284031215610bc957610bc86109a5565b5b6000610bd7848285016109f8565b91505092915050565b610be981610a0d565b82525050565b6000602082019050610c046000830184610be0565b92915050565b60008060408385031215610c2157610c206109a5565b5b6000610c2f85828601610a2e565b9250506020610c4085828601610a2e565b9150509250929050565b6000819050919050565b6000610c6f610c6a610c65846109af565b610c4a565b6109af565b9050919050565b6000610c8182610c54565b9050919050565b6000610c9382610c76565b9050919050565b610ca381610c88565b82525050565b6000602082019050610cbe6000830184610c9a565b92915050565b610ccd816109cf565b82525050565b6000606082019050610ce86000830186610be0565b610cf56020830185610be0565b610d026040830184610cc4565b949350505050565b600082825260208201905092915050565b7f4e6f2066756e647320746f207769746864726177000000000000000000000000600082015250565b6000610d51601483610d0a565b9150610d5c82610d1b565b602082019050919050565b60006020820190508181036000830152610d8081610d44565b9050919050565b7f4e4654206e6f74206c697374656420666f722073616c65000000000000000000600082015250565b6000610dbd601783610d0a565b9150610dc882610d87565b602082019050919050565b60006020820190508181036000830152610dec81610db0565b9050919050565b7f496e73756666696369656e74207061796d656e74000000000000000000000000600082015250565b6000610e29601483610d0a565b9150610e3482610df3565b602082019050919050565b60006020820190508181036000830152610e5881610e1c565b9050919050565b6000606082019050610e746000830186610cc4565b610e816020830185610cc4565b610e8e6040830184610be0565b949350505050565b7f4e487b7100000000000000000000000000000000000000000000000000000000600052601160045260246000fd5b6000610ed082610a0d565b9150610edb83610a0d565b9250828201905080821115610ef357610ef2610e96565b5b92915050565b7f5072696365206d7573742062652067726561746572207468616e207a65726f00600082015250565b6000610f2f601f83610d0a565b9150610f3a82610ef9565b602082019050919050565b60006020820190508181036000830152610f5e81610f22565b9050919050565b600081519050610f74816109e1565b92915050565b600060208284031215610f9057610f8f6109a5565b5b6000610f9e84828501610f65565b91505092915050565b7f596f7520617265206e6f7420746865206f776e65720000000000000000000000600082015250565b6000610fdd601583610d0a565b9150610fe882610fa7565b602082019050919050565b6000602082019050818103600083015261100c81610fd0565b9050919050565b7f4e465420616c7265616479206c69737465640000000000000000000000000000600082015250565b6000611049601283610d0a565b915061105482611013565b602082019050919050565b600060208201905081810360008301526110788161103c565b905091905056fea26469706673582212203ac472c82998af074391be19d109a73497191b7bcb41c33a05afd4f349ef696e64736f6c63430008140033",
  "linkReferences": {},
  "deployedLinkReferences": {}
}